{
  "contractName": "BlockSubs",
  "abi": [
    {
      "inputs": [],
      "stateMutability": "nonpayable",
      "type": "constructor"
    },
    {
      "anonymous": false,
      "inputs": [
        {
          "indexed": true,
          "internalType": "address",
          "name": "owner",
          "type": "address"
        },
        {
          "indexed": true,
          "internalType": "address",
          "name": "spender",
          "type": "address"
        },
        {
          "indexed": false,
          "internalType": "uint256",
          "name": "value",
          "type": "uint256"
        }
      ],
      "name": "Approval",
      "type": "event"
    },
    {
      "anonymous": false,
      "inputs": [
        {
          "indexed": true,
          "internalType": "address",
          "name": "previousOwner",
          "type": "address"
        },
        {
          "indexed": true,
          "internalType": "address",
          "name": "newOwner",
          "type": "address"
        }
      ],
      "name": "OwnershipTransferred",
      "type": "event"
    },
    {
      "anonymous": false,
      "inputs": [
        {
          "indexed": true,
          "internalType": "address",
          "name": "from",
          "type": "address"
        },
        {
          "indexed": true,
          "internalType": "address",
          "name": "to",
          "type": "address"
        },
        {
          "indexed": false,
          "internalType": "uint256",
          "name": "value",
          "type": "uint256"
        }
      ],
      "name": "Transfer",
      "type": "event"
    },
    {
      "inputs": [
        {
          "internalType": "address",
          "name": "owner",
          "type": "address"
        },
        {
          "internalType": "address",
          "name": "spender",
          "type": "address"
        }
      ],
      "name": "allowance",
      "outputs": [
        {
          "internalType": "uint256",
          "name": "",
          "type": "uint256"
        }
      ],
      "stateMutability": "view",
      "type": "function",
      "constant": true
    },
    {
      "inputs": [
        {
          "internalType": "address",
          "name": "spender",
          "type": "address"
        },
        {
          "internalType": "uint256",
          "name": "amount",
          "type": "uint256"
        }
      ],
      "name": "approve",
      "outputs": [
        {
          "internalType": "bool",
          "name": "",
          "type": "bool"
        }
      ],
      "stateMutability": "nonpayable",
      "type": "function"
    },
    {
      "inputs": [
        {
          "internalType": "address",
          "name": "account",
          "type": "address"
        }
      ],
      "name": "balanceOf",
      "outputs": [
        {
          "internalType": "uint256",
          "name": "",
          "type": "uint256"
        }
      ],
      "stateMutability": "view",
      "type": "function",
      "constant": true
    },
    {
      "inputs": [],
      "name": "decimals",
      "outputs": [
        {
          "internalType": "uint8",
          "name": "",
          "type": "uint8"
        }
      ],
      "stateMutability": "view",
      "type": "function",
      "constant": true
    },
    {
      "inputs": [
        {
          "internalType": "address",
          "name": "spender",
          "type": "address"
        },
        {
          "internalType": "uint256",
          "name": "subtractedValue",
          "type": "uint256"
        }
      ],
      "name": "decreaseAllowance",
      "outputs": [
        {
          "internalType": "bool",
          "name": "",
          "type": "bool"
        }
      ],
      "stateMutability": "nonpayable",
      "type": "function"
    },
    {
      "inputs": [
        {
          "internalType": "address",
          "name": "spender",
          "type": "address"
        },
        {
          "internalType": "uint256",
          "name": "addedValue",
          "type": "uint256"
        }
      ],
      "name": "increaseAllowance",
      "outputs": [
        {
          "internalType": "bool",
          "name": "",
          "type": "bool"
        }
      ],
      "stateMutability": "nonpayable",
      "type": "function"
    },
    {
      "inputs": [],
      "name": "name",
      "outputs": [
        {
          "internalType": "string",
          "name": "",
          "type": "string"
        }
      ],
      "stateMutability": "view",
      "type": "function",
      "constant": true
    },
    {
      "inputs": [],
      "name": "owner",
      "outputs": [
        {
          "internalType": "address",
          "name": "",
          "type": "address"
        }
      ],
      "stateMutability": "view",
      "type": "function",
      "constant": true
    },
    {
      "inputs": [],
      "name": "renounceOwnership",
      "outputs": [],
      "stateMutability": "nonpayable",
      "type": "function"
    },
    {
      "inputs": [],
      "name": "symbol",
      "outputs": [
        {
          "internalType": "string",
          "name": "",
          "type": "string"
        }
      ],
      "stateMutability": "view",
      "type": "function",
      "constant": true
    },
    {
      "inputs": [],
      "name": "totalSupply",
      "outputs": [
        {
          "internalType": "uint256",
          "name": "",
          "type": "uint256"
        }
      ],
      "stateMutability": "view",
      "type": "function",
      "constant": true
    },
    {
      "inputs": [
        {
          "internalType": "address",
          "name": "newOwner",
          "type": "address"
        }
      ],
      "name": "transferOwnership",
      "outputs": [],
      "stateMutability": "nonpayable",
      "type": "function"
    },
    {
      "inputs": [
        {
          "internalType": "string",
          "name": "name",
          "type": "string"
        }
      ],
      "name": "registerUser",
      "outputs": [],
      "stateMutability": "nonpayable",
      "type": "function"
    },
    {
      "inputs": [
        {
          "internalType": "address",
          "name": "account",
          "type": "address"
        }
      ],
      "name": "getUser",
      "outputs": [
        {
          "internalType": "string",
          "name": "name",
          "type": "string"
        },
        {
          "internalType": "enum BlockSubs.Role",
          "name": "roleId",
          "type": "uint8"
        },
        {
          "internalType": "uint256",
          "name": "expiration",
          "type": "uint256"
        },
        {
          "internalType": "uint256",
          "name": "cancelationTime",
          "type": "uint256"
        }
      ],
      "stateMutability": "view",
      "type": "function",
      "constant": true
    },
    {
      "inputs": [
        {
          "internalType": "enum BlockSubs.Role",
          "name": "role",
          "type": "uint8"
        }
      ],
      "name": "addSubscription",
      "outputs": [],
      "stateMutability": "nonpayable",
      "type": "function"
    },
    {
      "inputs": [],
      "name": "cancelSubscription",
      "outputs": [],
      "stateMutability": "nonpayable",
      "type": "function"
    },
    {
      "inputs": [
        {
          "internalType": "uint256",
          "name": "amount",
          "type": "uint256"
        }
      ],
      "name": "mintTokens",
      "outputs": [],
      "stateMutability": "payable",
      "type": "function",
      "payable": true
    },
    {
      "inputs": [
        {
          "internalType": "address",
          "name": "recipient",
          "type": "address"
        },
        {
          "internalType": "uint256",
          "name": "amount",
          "type": "uint256"
        }
      ],
      "name": "transfer",
      "outputs": [
        {
          "internalType": "bool",
          "name": "",
          "type": "bool"
        }
      ],
      "stateMutability": "nonpayable",
      "type": "function"
    },
    {
      "inputs": [
        {
          "internalType": "address",
          "name": "sender",
          "type": "address"
        },
        {
          "internalType": "address",
          "name": "recipient",
          "type": "address"
        },
        {
          "internalType": "uint256",
          "name": "amount",
          "type": "uint256"
        }
      ],
      "name": "transferFrom",
      "outputs": [
        {
          "internalType": "bool",
          "name": "",
          "type": "bool"
        }
      ],
      "stateMutability": "nonpayable",
      "type": "function"
    }
  ],
  "bytecode": "0x608060405234801562000010575f80fd5b506040518060400160405280600981526020017f426c6f636b5375627300000000000000000000000000000000000000000000008152506040518060400160405280600381526020017f425342000000000000000000000000000000000000000000000000000000000081525081600390816200008e91906200051d565b508060049081620000a091906200051d565b505050620000c3620000b7620001ef60201b60201c565b620001f660201b60201c565b678ac7230489e8000060075f60016004811115620000e657620000e562000601565b5b6004811115620000fb57620000fa62000601565b5b81526020019081526020015f20819055506801158e460913d0000060075f6002600481111562000130576200012f62000601565b5b600481111562000145576200014462000601565b5b81526020019081526020015f20819055506801a055690d9db8000060075f600360048111156200017a576200017962000601565b5b60048111156200018f576200018e62000601565b5b81526020019081526020015f208190555068022b1c8c1227a0000060075f600480811115620001c357620001c262000601565b5b6004811115620001d857620001d762000601565b5b81526020019081526020015f20819055506200062e565b5f33905090565b5f60055f9054906101000a900473ffffffffffffffffffffffffffffffffffffffff1690508160055f6101000a81548173ffffffffffffffffffffffffffffffffffffffff021916908373ffffffffffffffffffffffffffffffffffffffff1602179055508173ffffffffffffffffffffffffffffffffffffffff168173ffffffffffffffffffffffffffffffffffffffff167f8be0079c531659141344cd1fd0a4f28419497f9722a3daafe3b4186f6b6457e060405160405180910390a35050565b5f81519050919050565b7f4e487b71000000000000000000000000000000000000000000000000000000005f52604160045260245ffd5b7f4e487b71000000000000000000000000000000000000000000000000000000005f52602260045260245ffd5b5f60028204905060018216806200033557607f821691505b6020821081036200034b576200034a620002f0565b5b50919050565b5f819050815f5260205f209050919050565b5f6020601f8301049050919050565b5f82821b905092915050565b5f60088302620003af7fffffffffffffffffffffffffffffffffffffffffffffffffffffffffffffffff8262000372565b620003bb868362000372565b95508019841693508086168417925050509392505050565b5f819050919050565b5f819050919050565b5f62000405620003ff620003f984620003d3565b620003dc565b620003d3565b9050919050565b5f819050919050565b6200042083620003e5565b620004386200042f826200040c565b8484546200037e565b825550505050565b5f90565b6200044e62000440565b6200045b81848462000415565b505050565b5b818110156200048257620004765f8262000444565b60018101905062000461565b5050565b601f821115620004d1576200049b8162000351565b620004a68462000363565b81016020851015620004b6578190505b620004ce620004c58562000363565b83018262000460565b50505b505050565b5f82821c905092915050565b5f620004f35f1984600802620004d6565b1980831691505092915050565b5f6200050d8383620004e2565b9150826002028217905092915050565b6200052882620002b9565b67ffffffffffffffff811115620005445762000543620002c3565b5b6200055082546200031d565b6200055d82828562000486565b5f60209050601f83116001811462000593575f84156200057e578287015190505b6200058a858262000500565b865550620005f9565b601f198416620005a38662000351565b5f5b82811015620005cc57848901518255600182019150602085019450602081019050620005a5565b86831015620005ec5784890151620005e8601f891682620004e2565b8355505b6001600288020188555050505b505050505050565b7f4e487b71000000000000000000000000000000000000000000000000000000005f52602160045260245ffd5b612fa1806200063c5f395ff3fe608060405260043610610113575f3560e01c8063704f1b941161009f57806397304ced1161006357806397304ced14610394578063a457c2d7146103b0578063a9059cbb146103ec578063dd62ed3e14610428578063f2fde38b1461046457610113565b8063704f1b94146102c657806370a08231146102ee578063715018a61461032a5780638da5cb5b1461034057806395d89b411461036a57610113565b806324e9edb0116100e657806324e9edb0146101e35780632e8e8a2e146101f9578063313ce56714610221578063395093511461024b5780636f77926b1461028757610113565b806306fdde0314610117578063095ea7b31461014157806318160ddd1461017d57806323b872dd146101a7575b5f80fd5b348015610122575f80fd5b5061012b61048c565b6040516101389190611ad4565b60405180910390f35b34801561014c575f80fd5b5061016760048036038101906101629190611b92565b61051c565b6040516101749190611bea565b60405180910390f35b348015610188575f80fd5b5061019161053e565b60405161019e9190611c12565b60405180910390f35b3480156101b2575f80fd5b506101cd60048036038101906101c89190611c2b565b610547565b6040516101da9190611bea565b60405180910390f35b3480156101ee575f80fd5b506101f76106f0565b005b348015610204575f80fd5b5061021f600480360381019061021a9190611c9e565b6108f6565b005b34801561022c575f80fd5b50610235610bc7565b6040516102429190611ce4565b60405180910390f35b348015610256575f80fd5b50610271600480360381019061026c9190611b92565b610bcf565b60405161027e9190611bea565b60405180910390f35b348015610292575f80fd5b506102ad60048036038101906102a89190611cfd565b610c05565b6040516102bd9493929190611d9b565b60405180910390f35b3480156102d1575f80fd5b506102ec60048036038101906102e79190611f11565b610d0a565b005b3480156102f9575f80fd5b50610314600480360381019061030f9190611cfd565b610e2a565b6040516103219190611c12565b60405180910390f35b348015610335575f80fd5b5061033e610e6f565b005b34801561034b575f80fd5b50610354610e82565b6040516103619190611f67565b60405180910390f35b348015610375575f80fd5b5061037e610eaa565b60405161038b9190611ad4565b60405180910390f35b6103ae60048036038101906103a99190611f80565b610f3a565b005b3480156103bb575f80fd5b506103d660048036038101906103d19190611b92565b611047565b6040516103e39190611bea565b60405180910390f35b3480156103f7575f80fd5b50610412600480360381019061040d9190611b92565b6110bc565b60405161041f9190611bea565b60405180910390f35b348015610433575f80fd5b5061044e60048036038101906104499190611fab565b61118b565b60405161045b9190611c12565b60405180910390f35b34801561046f575f80fd5b5061048a60048036038101906104859190611cfd565b61120d565b005b60606003805461049b90612016565b80601f01602080910402602001604051908101604052809291908181526020018280546104c790612016565b80156105125780601f106104e957610100808354040283529160200191610512565b820191905f5260205f20905b8154815290600101906020018083116104f557829003601f168201915b5050505050905090565b5f8061052661128f565b9050610533818585611296565b600191505092915050565b5f600254905090565b5f8073ffffffffffffffffffffffffffffffffffffffff168473ffffffffffffffffffffffffffffffffffffffff16036105b6576040517f08c379a00000000000000000000000000000000000000000000000000000000081526004016105ad906120b6565b60405180910390fd5b5f73ffffffffffffffffffffffffffffffffffffffff168373ffffffffffffffffffffffffffffffffffffffff1603610624576040517f08c379a000000000000000000000000000000000000000000000000000000000815260040161061b90612144565b60405180910390fd5b8161062e85610e2a565b101561066f576040517f08c379a0000000000000000000000000000000000000000000000000000000008152600401610666906121d2565b60405180910390fd5b8161067a853361118b565b10156106bb576040517f08c379a00000000000000000000000000000000000000000000000000000000081526004016106b29061223a565b60405180910390fd5b6106c6848484611459565b6106e58433846106d6883361118b565b6106e09190612285565b611296565b600190509392505050565b5f60065f3373ffffffffffffffffffffffffffffffffffffffff1673ffffffffffffffffffffffffffffffffffffffff1681526020019081526020015f2090505f8160010190505f600481111561074a57610749611d28565b5b815f015f9054906101000a900460ff16600481111561076c5761076b611d28565b5b1415801561077d5750428160010154115b6107bc576040517f08c379a00000000000000000000000000000000000000000000000000000000081526004016107b390612302565b60405180910390fd5b60085f9054906101000a900460ff161561080b576040517f08c379a00000000000000000000000000000000000000000000000000000000081526004016108029061236a565b60405180910390fd5b600160085f6101000a81548160ff0219169083151502179055505f4282600101546108369190612285565b90505f62278d0060075f855f015f9054906101000a900460ff16600481111561086257610861611d28565b5b600481111561087457610873611d28565b5b81526020019081526020015f20548361088d9190612388565b61089791906123f6565b90505f835f015f6101000a81548160ff021916908360048111156108be576108bd611d28565b5b02179055504283600201819055505f60085f6101000a81548160ff0219169083151502179055506108f0303383611459565b50505050565b5f600481111561090957610908611d28565b5b81600481111561091c5761091b611d28565b5b0361095c576040517f08c379a000000000000000000000000000000000000000000000000000000000815260040161095390612470565b60405180910390fd5b5f60065f3373ffffffffffffffffffffffffffffffffffffffff1673ffffffffffffffffffffffffffffffffffffffff1681526020019081526020015f205f0180546109a790612016565b9050116109e9576040517f08c379a00000000000000000000000000000000000000000000000000000000081526004016109e0906124d8565b60405180910390fd5b60075f8260048111156109ff576109fe611d28565b5b6004811115610a1157610a10611d28565b5b81526020019081526020015f2054610a2833610e2a565b1015610a69576040517f08c379a0000000000000000000000000000000000000000000000000000000008152600401610a6090612540565b60405180910390fd5b5f60065f3373ffffffffffffffffffffffffffffffffffffffff1673ffffffffffffffffffffffffffffffffffffffff1681526020019081526020015f2090505f8160010190505f6004811115610ac357610ac2611d28565b5b815f015f9054906101000a900460ff166004811115610ae557610ae4611d28565b5b1480610af45750428160010154105b610b33576040517f08c379a0000000000000000000000000000000000000000000000000000000008152600401610b2a906125ce565b60405180910390fd5b5f62278d0042610b4391906125ec565b905083825f015f6101000a81548160ff02191690836004811115610b6a57610b69611d28565b5b02179055508082600101819055505f8260020181905550610bc1333060075f886004811115610b9c57610b9b611d28565b5b6004811115610bae57610bad611d28565b5b81526020019081526020015f2054611459565b50505050565b5f6012905090565b5f80610bd961128f565b9050610bfa818585610beb858961118b565b610bf591906125ec565b611296565b600191505092915050565b60605f805f8060065f8773ffffffffffffffffffffffffffffffffffffffff1673ffffffffffffffffffffffffffffffffffffffff1681526020019081526020015f209050805f01816001015f015f9054906101000a900460ff1682600101600101548360010160020154838054610c7c90612016565b80601f0160208091040260200160405190810160405280929190818152602001828054610ca890612016565b8015610cf35780601f10610cca57610100808354040283529160200191610cf3565b820191905f5260205f20905b815481529060010190602001808311610cd657829003601f168201915b505050505093509450945094509450509193509193565b5f815111610d4d576040517f08c379a0000000000000000000000000000000000000000000000000000000008152600401610d4490612669565b60405180910390fd5b5f60065f3373ffffffffffffffffffffffffffffffffffffffff1673ffffffffffffffffffffffffffffffffffffffff1681526020019081526020015f205f018054610d9890612016565b905014610dda576040517f08c379a0000000000000000000000000000000000000000000000000000000008152600401610dd1906126d1565b60405180910390fd5b8060065f3373ffffffffffffffffffffffffffffffffffffffff1673ffffffffffffffffffffffffffffffffffffffff1681526020019081526020015f205f019081610e26919061288c565b5050565b5f805f8373ffffffffffffffffffffffffffffffffffffffff1673ffffffffffffffffffffffffffffffffffffffff1681526020019081526020015f20549050919050565b610e77611545565b610e805f6115c3565b565b5f60055f9054906101000a900473ffffffffffffffffffffffffffffffffffffffff16905090565b606060048054610eb990612016565b80601f0160208091040260200160405190810160405280929190818152602001828054610ee590612016565b8015610f305780601f10610f0757610100808354040283529160200191610f30565b820191905f5260205f20905b815481529060010190602001808311610f1357829003601f168201915b5050505050905090565b5f8111610f7c576040517f08c379a0000000000000000000000000000000000000000000000000000000008152600401610f73906129a5565b60405180910390fd5b670de0b6b3a76400006107d0610f929190612388565b811115610fd4576040517f08c379a0000000000000000000000000000000000000000000000000000000008152600401610fcb90612a33565b60405180910390fd5b655af3107a400081610fe69190612388565b3414611027576040517f08c379a000000000000000000000000000000000000000000000000000000000815260040161101e90612a9b565b60405180910390fd5b61104433670de0b6b3a76400008361103f9190612388565b611686565b50565b5f8061105161128f565b90505f61105e828661118b565b9050838110156110a3576040517f08c379a000000000000000000000000000000000000000000000000000000000815260040161109a90612b29565b60405180910390fd5b6110b08286868403611296565b60019250505092915050565b5f8073ffffffffffffffffffffffffffffffffffffffff168373ffffffffffffffffffffffffffffffffffffffff160361112b576040517f08c379a000000000000000000000000000000000000000000000000000000000815260040161112290612144565b60405180910390fd5b8161113533610e2a565b1015611176576040517f08c379a000000000000000000000000000000000000000000000000000000000815260040161116d906121d2565b60405180910390fd5b611181338484611459565b6001905092915050565b5f60015f8473ffffffffffffffffffffffffffffffffffffffff1673ffffffffffffffffffffffffffffffffffffffff1681526020019081526020015f205f8373ffffffffffffffffffffffffffffffffffffffff1673ffffffffffffffffffffffffffffffffffffffff1681526020019081526020015f2054905092915050565b611215611545565b5f73ffffffffffffffffffffffffffffffffffffffff168173ffffffffffffffffffffffffffffffffffffffff1603611283576040517f08c379a000000000000000000000000000000000000000000000000000000000815260040161127a90612bb7565b60405180910390fd5b61128c816115c3565b50565b5f33905090565b5f73ffffffffffffffffffffffffffffffffffffffff168373ffffffffffffffffffffffffffffffffffffffff1603611304576040517f08c379a00000000000000000000000000000000000000000000000000000000081526004016112fb90612c45565b60405180910390fd5b5f73ffffffffffffffffffffffffffffffffffffffff168273ffffffffffffffffffffffffffffffffffffffff1603611372576040517f08c379a000000000000000000000000000000000000000000000000000000000815260040161136990612cd3565b60405180910390fd5b8060015f8573ffffffffffffffffffffffffffffffffffffffff1673ffffffffffffffffffffffffffffffffffffffff1681526020019081526020015f205f8473ffffffffffffffffffffffffffffffffffffffff1673ffffffffffffffffffffffffffffffffffffffff1681526020019081526020015f20819055508173ffffffffffffffffffffffffffffffffffffffff168373ffffffffffffffffffffffffffffffffffffffff167f8c5be1e5ebec7d5bd14f71427d1e84f3dd0314c0f7b2291e5b200ac8c7c3b9258360405161144c9190611c12565b60405180910390a3505050565b5f73ffffffffffffffffffffffffffffffffffffffff168373ffffffffffffffffffffffffffffffffffffffff16036114c7576040517f08c379a00000000000000000000000000000000000000000000000000000000081526004016114be906120b6565b60405180910390fd5b5f73ffffffffffffffffffffffffffffffffffffffff168273ffffffffffffffffffffffffffffffffffffffff1603611535576040517f08c379a000000000000000000000000000000000000000000000000000000000815260040161152c90612144565b60405180910390fd5b6115408383836117d4565b505050565b61154d61128f565b73ffffffffffffffffffffffffffffffffffffffff1661156b610e82565b73ffffffffffffffffffffffffffffffffffffffff16146115c1576040517f08c379a00000000000000000000000000000000000000000000000000000000081526004016115b890612d3b565b60405180910390fd5b565b5f60055f9054906101000a900473ffffffffffffffffffffffffffffffffffffffff1690508160055f6101000a81548173ffffffffffffffffffffffffffffffffffffffff021916908373ffffffffffffffffffffffffffffffffffffffff1602179055508173ffffffffffffffffffffffffffffffffffffffff168173ffffffffffffffffffffffffffffffffffffffff167f8be0079c531659141344cd1fd0a4f28419497f9722a3daafe3b4186f6b6457e060405160405180910390a35050565b5f73ffffffffffffffffffffffffffffffffffffffff168273ffffffffffffffffffffffffffffffffffffffff16036116f4576040517f08c379a00000000000000000000000000000000000000000000000000000000081526004016116eb90612da3565b60405180910390fd5b6116ff5f8383611a40565b8060025f82825461171091906125ec565b92505081905550805f808473ffffffffffffffffffffffffffffffffffffffff1673ffffffffffffffffffffffffffffffffffffffff1681526020019081526020015f205f82825401925050819055508173ffffffffffffffffffffffffffffffffffffffff165f73ffffffffffffffffffffffffffffffffffffffff167fddf252ad1be2c89b69c2b068fc378daa952ba7f163c4a11628f55a4df523b3ef836040516117bd9190611c12565b60405180910390a36117d05f8383611a45565b5050565b5f73ffffffffffffffffffffffffffffffffffffffff168373ffffffffffffffffffffffffffffffffffffffff1603611842576040517f08c379a000000000000000000000000000000000000000000000000000000000815260040161183990612e31565b60405180910390fd5b5f73ffffffffffffffffffffffffffffffffffffffff168273ffffffffffffffffffffffffffffffffffffffff16036118b0576040517f08c379a00000000000000000000000000000000000000000000000000000000081526004016118a790612ebf565b60405180910390fd5b6118bb838383611a40565b5f805f8573ffffffffffffffffffffffffffffffffffffffff1673ffffffffffffffffffffffffffffffffffffffff1681526020019081526020015f205490508181101561193e576040517f08c379a000000000000000000000000000000000000000000000000000000000815260040161193590612f4d565b60405180910390fd5b8181035f808673ffffffffffffffffffffffffffffffffffffffff1673ffffffffffffffffffffffffffffffffffffffff1681526020019081526020015f2081905550815f808573ffffffffffffffffffffffffffffffffffffffff1673ffffffffffffffffffffffffffffffffffffffff1681526020019081526020015f205f82825401925050819055508273ffffffffffffffffffffffffffffffffffffffff168473ffffffffffffffffffffffffffffffffffffffff167fddf252ad1be2c89b69c2b068fc378daa952ba7f163c4a11628f55a4df523b3ef84604051611a279190611c12565b60405180910390a3611a3a848484611a45565b50505050565b505050565b505050565b5f81519050919050565b5f82825260208201905092915050565b5f5b83811015611a81578082015181840152602081019050611a66565b5f8484015250505050565b5f601f19601f8301169050919050565b5f611aa682611a4a565b611ab08185611a54565b9350611ac0818560208601611a64565b611ac981611a8c565b840191505092915050565b5f6020820190508181035f830152611aec8184611a9c565b905092915050565b5f604051905090565b5f80fd5b5f80fd5b5f73ffffffffffffffffffffffffffffffffffffffff82169050919050565b5f611b2e82611b05565b9050919050565b611b3e81611b24565b8114611b48575f80fd5b50565b5f81359050611b5981611b35565b92915050565b5f819050919050565b611b7181611b5f565b8114611b7b575f80fd5b50565b5f81359050611b8c81611b68565b92915050565b5f8060408385031215611ba857611ba7611afd565b5b5f611bb585828601611b4b565b9250506020611bc685828601611b7e565b9150509250929050565b5f8115159050919050565b611be481611bd0565b82525050565b5f602082019050611bfd5f830184611bdb565b92915050565b611c0c81611b5f565b82525050565b5f602082019050611c255f830184611c03565b92915050565b5f805f60608486031215611c4257611c41611afd565b5b5f611c4f86828701611b4b565b9350506020611c6086828701611b4b565b9250506040611c7186828701611b7e565b9150509250925092565b60058110611c87575f80fd5b50565b5f81359050611c9881611c7b565b92915050565b5f60208284031215611cb357611cb2611afd565b5b5f611cc084828501611c8a565b91505092915050565b5f60ff82169050919050565b611cde81611cc9565b82525050565b5f602082019050611cf75f830184611cd5565b92915050565b5f60208284031215611d1257611d11611afd565b5b5f611d1f84828501611b4b565b91505092915050565b7f4e487b71000000000000000000000000000000000000000000000000000000005f52602160045260245ffd5b60058110611d6657611d65611d28565b5b50565b5f819050611d7682611d55565b919050565b5f611d8582611d69565b9050919050565b611d9581611d7b565b82525050565b5f6080820190508181035f830152611db38187611a9c565b9050611dc26020830186611d8c565b611dcf6040830185611c03565b611ddc6060830184611c03565b95945050505050565b5f80fd5b5f80fd5b7f4e487b71000000000000000000000000000000000000000000000000000000005f52604160045260245ffd5b611e2382611a8c565b810181811067ffffffffffffffff82111715611e4257611e41611ded565b5b80604052505050565b5f611e54611af4565b9050611e608282611e1a565b919050565b5f67ffffffffffffffff821115611e7f57611e7e611ded565b5b611e8882611a8c565b9050602081019050919050565b828183375f83830152505050565b5f611eb5611eb084611e65565b611e4b565b905082815260208101848484011115611ed157611ed0611de9565b5b611edc848285611e95565b509392505050565b5f82601f830112611ef857611ef7611de5565b5b8135611f08848260208601611ea3565b91505092915050565b5f60208284031215611f2657611f25611afd565b5b5f82013567ffffffffffffffff811115611f4357611f42611b01565b5b611f4f84828501611ee4565b91505092915050565b611f6181611b24565b82525050565b5f602082019050611f7a5f830184611f58565b92915050565b5f60208284031215611f9557611f94611afd565b5b5f611fa284828501611b7e565b91505092915050565b5f8060408385031215611fc157611fc0611afd565b5b5f611fce85828601611b4b565b9250506020611fdf85828601611b4b565b9150509250929050565b7f4e487b71000000000000000000000000000000000000000000000000000000005f52602260045260245ffd5b5f600282049050600182168061202d57607f821691505b6020821081036120405761203f611fe9565b5b50919050565b7f5472616e736665722066726f6d207a65726f2061646472657373206973206e6f5f8201527f7420616c6c6f7765640000000000000000000000000000000000000000000000602082015250565b5f6120a0602983611a54565b91506120ab82612046565b604082019050919050565b5f6020820190508181035f8301526120cd81612094565b9050919050565b7f5472616e7366657220746f207a65726f2061646472657373206973206e6f74205f8201527f616c6c6f77656400000000000000000000000000000000000000000000000000602082015250565b5f61212e602783611a54565b9150612139826120d4565b604082019050919050565b5f6020820190508181035f83015261215b81612122565b9050919050565b7f496e73756666696369656e742062616c616e636520666f72207472616e7366655f8201527f7200000000000000000000000000000000000000000000000000000000000000602082015250565b5f6121bc602183611a54565b91506121c782612162565b604082019050919050565b5f6020820190508181035f8301526121e9816121b0565b9050919050565b7f5472616e73666572206578636565647320616c6c6f77616e63650000000000005f82015250565b5f612224601a83611a54565b915061222f826121f0565b602082019050919050565b5f6020820190508181035f83015261225181612218565b9050919050565b7f4e487b71000000000000000000000000000000000000000000000000000000005f52601160045260245ffd5b5f61228f82611b5f565b915061229a83611b5f565b92508282039050818111156122b2576122b1612258565b5b92915050565b7f4e6f2061637469766520737562736372697074696f6e20746f2063616e63656c5f82015250565b5f6122ec602083611a54565b91506122f7826122b8565b602082019050919050565b5f6020820190508181035f830152612319816122e0565b9050919050565b7f43616e63656c6c6174696f6e20696e2070726f677265737300000000000000005f82015250565b5f612354601883611a54565b915061235f82612320565b602082019050919050565b5f6020820190508181035f83015261238181612348565b9050919050565b5f61239282611b5f565b915061239d83611b5f565b92508282026123ab81611b5f565b915082820484148315176123c2576123c1612258565b5b5092915050565b7f4e487b71000000000000000000000000000000000000000000000000000000005f52601260045260245ffd5b5f61240082611b5f565b915061240b83611b5f565b92508261241b5761241a6123c9565b5b828204905092915050565b7f496e76616c696420726f6c6500000000000000000000000000000000000000005f82015250565b5f61245a600c83611a54565b915061246582612426565b602082019050919050565b5f6020820190508181035f8301526124878161244e565b9050919050565b7f55736572206e6f742072656769737465726564000000000000000000000000005f82015250565b5f6124c2601383611a54565b91506124cd8261248e565b602082019050919050565b5f6020820190508181035f8301526124ef816124b6565b9050919050565b7f496e73756666696369656e742062616c616e63650000000000000000000000005f82015250565b5f61252a601483611a54565b9150612535826124f6565b602082019050919050565b5f6020820190508181035f8301526125578161251e565b9050919050565b7f4578697374696e6720737562736372697074696f6e207374696c6c20616374695f8201527f7665000000000000000000000000000000000000000000000000000000000000602082015250565b5f6125b8602283611a54565b91506125c38261255e565b604082019050919050565b5f6020820190508181035f8301526125e5816125ac565b9050919050565b5f6125f682611b5f565b915061260183611b5f565b925082820190508082111561261957612618612258565b5b92915050565b7f4e616d65206d757374206e6f7420626520656d707479000000000000000000005f82015250565b5f612653601683611a54565b915061265e8261261f565b602082019050919050565b5f6020820190508181035f83015261268081612647565b9050919050565b7f5573657220616c726561647920726567697374657265640000000000000000005f82015250565b5f6126bb601783611a54565b91506126c682612687565b602082019050919050565b5f6020820190508181035f8301526126e8816126af565b9050919050565b5f819050815f5260205f209050919050565b5f6020601f8301049050919050565b5f82821b905092915050565b5f6008830261274b7fffffffffffffffffffffffffffffffffffffffffffffffffffffffffffffffff82612710565b6127558683612710565b95508019841693508086168417925050509392505050565b5f819050919050565b5f61279061278b61278684611b5f565b61276d565b611b5f565b9050919050565b5f819050919050565b6127a983612776565b6127bd6127b582612797565b84845461271c565b825550505050565b5f90565b6127d16127c5565b6127dc8184846127a0565b505050565b5b818110156127ff576127f45f826127c9565b6001810190506127e2565b5050565b601f82111561284457612815816126ef565b61281e84612701565b8101602085101561282d578190505b61284161283985612701565b8301826127e1565b50505b505050565b5f82821c905092915050565b5f6128645f1984600802612849565b1980831691505092915050565b5f61287c8383612855565b9150826002028217905092915050565b61289582611a4a565b67ffffffffffffffff8111156128ae576128ad611ded565b5b6128b88254612016565b6128c3828285612803565b5f60209050601f8311600181146128f4575f84156128e2578287015190505b6128ec8582612871565b865550612953565b601f198416612902866126ef565b5f5b8281101561292957848901518255600182019150602085019450602081019050612904565b868310156129465784890151612942601f891682612855565b8355505b6001600288020188555050505b505050505050565b7f416d6f756e74206d7573742062652067726561746572207468616e207a65726f5f82015250565b5f61298f602083611a54565b915061299a8261295b565b602082019050919050565b5f6020820190508181035f8301526129bc81612983565b9050919050565b7f45786365656473206d6178696d756d20616d6f756e74207065722077616c6c655f8201527f7400000000000000000000000000000000000000000000000000000000000000602082015250565b5f612a1d602183611a54565b9150612a28826129c3565b604082019050919050565b5f6020820190508181035f830152612a4a81612a11565b9050919050565b7f496e636f7272656374207061796d656e7420616d6f756e7400000000000000005f82015250565b5f612a85601883611a54565b9150612a9082612a51565b602082019050919050565b5f6020820190508181035f830152612ab281612a79565b9050919050565b7f45524332303a2064656372656173656420616c6c6f77616e63652062656c6f775f8201527f207a65726f000000000000000000000000000000000000000000000000000000602082015250565b5f612b13602583611a54565b9150612b1e82612ab9565b604082019050919050565b5f6020820190508181035f830152612b4081612b07565b9050919050565b7f4f776e61626c653a206e6577206f776e657220697320746865207a65726f20615f8201527f6464726573730000000000000000000000000000000000000000000000000000602082015250565b5f612ba1602683611a54565b9150612bac82612b47565b604082019050919050565b5f6020820190508181035f830152612bce81612b95565b9050919050565b7f45524332303a20617070726f76652066726f6d20746865207a65726f206164645f8201527f7265737300000000000000000000000000000000000000000000000000000000602082015250565b5f612c2f602483611a54565b9150612c3a82612bd5565b604082019050919050565b5f6020820190508181035f830152612c5c81612c23565b9050919050565b7f45524332303a20617070726f766520746f20746865207a65726f2061646472655f8201527f7373000000000000000000000000000000000000000000000000000000000000602082015250565b5f612cbd602283611a54565b9150612cc882612c63565b604082019050919050565b5f6020820190508181035f830152612cea81612cb1565b9050919050565b7f4f776e61626c653a2063616c6c6572206973206e6f7420746865206f776e65725f82015250565b5f612d25602083611a54565b9150612d3082612cf1565b602082019050919050565b5f6020820190508181035f830152612d5281612d19565b9050919050565b7f45524332303a206d696e7420746f20746865207a65726f2061646472657373005f82015250565b5f612d8d601f83611a54565b9150612d9882612d59565b602082019050919050565b5f6020820190508181035f830152612dba81612d81565b9050919050565b7f45524332303a207472616e736665722066726f6d20746865207a65726f2061645f8201527f6472657373000000000000000000000000000000000000000000000000000000602082015250565b5f612e1b602583611a54565b9150612e2682612dc1565b604082019050919050565b5f6020820190508181035f830152612e4881612e0f565b9050919050565b7f45524332303a207472616e7366657220746f20746865207a65726f20616464725f8201527f6573730000000000000000000000000000000000000000000000000000000000602082015250565b5f612ea9602383611a54565b9150612eb482612e4f565b604082019050919050565b5f6020820190508181035f830152612ed681612e9d565b9050919050565b7f45524332303a207472616e7366657220616d6f756e74206578636565647320625f8201527f616c616e63650000000000000000000000000000000000000000000000000000602082015250565b5f612f37602683611a54565b9150612f4282612edd565b604082019050919050565b5f6020820190508181035f830152612f6481612f2b565b905091905056fea2646970667358221220322c01268227ca086becd2b9e2a33e7bbb61abf6621a3a1ac36d1ca4b66968ba64736f6c63430008140033",
  "immutableReferences": {},
  "source": "// SPDX-License-Identifier: MIT\r\npragma solidity ^0.8.9;\r\n\r\nimport \"@openzeppelin/contracts/token/ERC20/ERC20.sol\";\r\nimport \"@openzeppelin/contracts/access/Ownable.sol\";\r\n\r\ncontract BlockSubs is ERC20, Ownable {\r\n    enum Role {\r\n        None,\r\n        Silver,\r\n        Gold,\r\n        Platinum,\r\n        Diamond\r\n    }\r\n\r\n    struct Subscription {\r\n        Role roleId;\r\n        uint256 expiration;\r\n        uint256 cancelationTime;\r\n    }\r\n\r\n    struct User {\r\n        string name;\r\n        Subscription subscription;\r\n    }\r\n\r\n    mapping(address => User) private _users;\r\n    mapping(Role => uint256) private _rolePrices;\r\n\r\n    uint256 private constant DURATION = 30 days;\r\n    uint256 private constant _TOKEN_PRICE = 0.0001 ether;\r\n    uint256 private constant _MAX_MINT_AMOUNT = 2000;\r\n\r\n    bool private _isProcessingCancellation;\r\n\r\n    constructor() ERC20(\"BlockSubs\", \"BSB\") {\r\n        _rolePrices[Role.Silver] = 10 * 10 ** 18; // Adjust the role prices to match the new decimal places\r\n        _rolePrices[Role.Gold] = 20 * 10 ** 18;\r\n        _rolePrices[Role.Platinum] = 30 * 10 ** 18;\r\n        _rolePrices[Role.Diamond] = 40 * 10 ** 18;\r\n    }\r\n\r\n    function registerUser(string memory name) public {\r\n        require(bytes(name).length > 0, \"Name must not be empty\");\r\n        require(\r\n            bytes(_users[msg.sender].name).length == 0,\r\n            \"User already registered\"\r\n        );\r\n\r\n        _users[msg.sender].name = name;\r\n    }\r\n\r\n    function getUser(\r\n        address account\r\n    )\r\n        external\r\n        view\r\n        returns (\r\n            string memory name,\r\n            Role roleId,\r\n            uint256 expiration,\r\n            uint256 cancelationTime\r\n        )\r\n    {\r\n        User storage user = _users[account];\r\n        return (\r\n            user.name,\r\n            user.subscription.roleId,\r\n            user.subscription.expiration,\r\n            user.subscription.cancelationTime\r\n        );\r\n    }\r\n\r\n    function addSubscription(Role role) public {\r\n        require(role != Role.None, \"Invalid role\");\r\n        require(\r\n            bytes(_users[msg.sender].name).length > 0,\r\n            \"User not registered\"\r\n        );\r\n        require(\r\n            balanceOf(msg.sender) >= _rolePrices[role],\r\n            \"Insufficient balance\"\r\n        );\r\n\r\n        User storage user = _users[msg.sender];\r\n        Subscription storage subscription = user.subscription;\r\n\r\n        require(\r\n            subscription.roleId == Role.None ||\r\n                subscription.expiration < block.timestamp,\r\n            \"Existing subscription still active\"\r\n        );\r\n\r\n        uint256 expiration = block.timestamp + DURATION;\r\n        subscription.roleId = role;\r\n        subscription.expiration = expiration;\r\n        subscription.cancelationTime = 0;\r\n\r\n        _transfer(msg.sender, address(this), _rolePrices[role]);\r\n    }\r\n\r\n    function cancelSubscription() public {\r\n        User storage user = _users[msg.sender];\r\n        Subscription storage subscription = user.subscription;\r\n\r\n        require(\r\n            subscription.roleId != Role.None &&\r\n                subscription.expiration > block.timestamp,\r\n            \"No active subscription to cancel\"\r\n        );\r\n\r\n        require(!_isProcessingCancellation, \"Cancellation in progress\");\r\n        _isProcessingCancellation = true;\r\n\r\n        uint256 remainingTime = subscription.expiration - block.timestamp;\r\n        uint256 refundAmount = (remainingTime *\r\n            _rolePrices[subscription.roleId]) / DURATION;\r\n\r\n        subscription.roleId = Role.None;\r\n        subscription.cancelationTime = block.timestamp;\r\n\r\n        _isProcessingCancellation = false;\r\n        _transfer(address(this), msg.sender, refundAmount);\r\n    }\r\n\r\n    function mintTokens(uint256 amount) public payable {\r\n        require(amount > 0, \"Amount must be greater than zero\");\r\n        require(\r\n            amount <= _MAX_MINT_AMOUNT * 10 ** 18,\r\n            \"Exceeds maximum amount per wallet\"\r\n        );\r\n        require(msg.value == amount * _TOKEN_PRICE, \"Incorrect payment amount\");\r\n\r\n        _mint(msg.sender, amount * 10 ** 18); // Multiply the amount by 10^18\r\n    }\r\n\r\n    function transfer(\r\n        address recipient,\r\n        uint256 amount\r\n    ) public override returns (bool) {\r\n        require(\r\n            recipient != address(0),\r\n            \"Transfer to zero address is not allowed\"\r\n        );\r\n        require(\r\n            balanceOf(msg.sender) >= amount,\r\n            \"Insufficient balance for transfer\"\r\n        );\r\n\r\n        _transfer(msg.sender, recipient, amount);\r\n        return true;\r\n    }\r\n\r\n    function transferFrom(\r\n        address sender,\r\n        address recipient,\r\n        uint256 amount\r\n    ) public override returns (bool) {\r\n        require(\r\n            sender != address(0),\r\n            \"Transfer from zero address is not allowed\"\r\n        );\r\n        require(\r\n            recipient != address(0),\r\n            \"Transfer to zero address is not allowed\"\r\n        );\r\n        require(\r\n            balanceOf(sender) >= amount,\r\n            \"Insufficient balance for transfer\"\r\n        );\r\n        require(\r\n            allowance(sender, msg.sender) >= amount,\r\n            \"Transfer exceeds allowance\"\r\n        );\r\n\r\n        _transfer(sender, recipient, amount);\r\n        _approve(sender, msg.sender, allowance(sender, msg.sender) - amount);\r\n        return true;\r\n    }\r\n\r\n    function _transfer(\r\n        address sender,\r\n        address recipient,\r\n        uint256 amount\r\n    ) internal override {\r\n        require(\r\n            sender != address(0),\r\n            \"Transfer from zero address is not allowed\"\r\n        );\r\n        require(\r\n            recipient != address(0),\r\n            \"Transfer to zero address is not allowed\"\r\n        );\r\n\r\n        super._transfer(sender, recipient, amount);\r\n    }\r\n}\r\n",
  "sourcePath": "D:\\Projects\\evm-development\\project-block-subs\\contracts\\BlockSubs.sol",
  "compiler": {
    "name": "solc",
    "version": "0.8.20+commit.a1b79de6.Emscripten.clang"
  },
  "schemaVersion": "3.4.14",
  "updatedAt": "2023-07-03T12:55:19.141Z",
  "networkType": "ethereum",
  "devdoc": {
    "events": {
      "Approval(address,address,uint256)": {
        "details": "Emitted when the allowance of a `spender` for an `owner` is set by a call to {approve}. `value` is the new allowance."
      },
      "Transfer(address,address,uint256)": {
        "details": "Emitted when `value` tokens are moved from one account (`from`) to another (`to`). Note that `value` may be zero."
      }
    },
    "kind": "dev",
    "methods": {
      "allowance(address,address)": {
        "details": "See {IERC20-allowance}."
      },
      "approve(address,uint256)": {
        "details": "See {IERC20-approve}. NOTE: If `amount` is the maximum `uint256`, the allowance is not updated on `transferFrom`. This is semantically equivalent to an infinite approval. Requirements: - `spender` cannot be the zero address."
      },
      "balanceOf(address)": {
        "details": "See {IERC20-balanceOf}."
      },
      "decimals()": {
        "details": "Returns the number of decimals used to get its user representation. For example, if `decimals` equals `2`, a balance of `505` tokens should be displayed to a user as `5.05` (`505 / 10 ** 2`). Tokens usually opt for a value of 18, imitating the relationship between Ether and Wei. This is the default value returned by this function, unless it's overridden. NOTE: This information is only used for _display_ purposes: it in no way affects any of the arithmetic of the contract, including {IERC20-balanceOf} and {IERC20-transfer}."
      },
      "decreaseAllowance(address,uint256)": {
        "details": "Atomically decreases the allowance granted to `spender` by the caller. This is an alternative to {approve} that can be used as a mitigation for problems described in {IERC20-approve}. Emits an {Approval} event indicating the updated allowance. Requirements: - `spender` cannot be the zero address. - `spender` must have allowance for the caller of at least `subtractedValue`."
      },
      "increaseAllowance(address,uint256)": {
        "details": "Atomically increases the allowance granted to `spender` by the caller. This is an alternative to {approve} that can be used as a mitigation for problems described in {IERC20-approve}. Emits an {Approval} event indicating the updated allowance. Requirements: - `spender` cannot be the zero address."
      },
      "name()": {
        "details": "Returns the name of the token."
      },
      "owner()": {
        "details": "Returns the address of the current owner."
      },
      "renounceOwnership()": {
        "details": "Leaves the contract without owner. It will not be possible to call `onlyOwner` functions. Can only be called by the current owner. NOTE: Renouncing ownership will leave the contract without an owner, thereby disabling any functionality that is only available to the owner."
      },
      "symbol()": {
        "details": "Returns the symbol of the token, usually a shorter version of the name."
      },
      "totalSupply()": {
        "details": "See {IERC20-totalSupply}."
      },
      "transferOwnership(address)": {
        "details": "Transfers ownership of the contract to a new account (`newOwner`). Can only be called by the current owner."
      }
    },
    "version": 1
  },
  "userdoc": {
    "kind": "user",
    "methods": {},
    "version": 1
  }
}